:020000040000FA
:060000000A128A11FC2F18
:100D4E008B170B17831603130C170C128C16080037
:100D5E0083160313091489148316031788160817AC
:100D6E008312031389010800831203131F148316C1
:100D7E0003139F139F121F120C17831203130C13CE
:100D8E000800F200D92E831203139F131F13EC2EAB
:100D9E00831203139F131F17EC2E831203139F1737
:100DAE001F13EC2E7208F000F1017108003A0319BE
:100DBE00E12EEC2E7008003A0319CA2E013A0319DF
:100DCE00CF2E023A0319D42EEC2E08000A128A11E5
:100DDE00AF260A128A110A128A11BB260A128A112A
:100DEE0005300A128A1163270A128A1101300A127B
:100DFE008A11C8260A128A1103300A128A1119277B
:100E0E000A128A110A128A11A7260A128A1183124D
:100E1E0003139F18132F142F0E2F9F140E2F0A1229
:100E2E008A110028F2004C2F8316031387128711A4
:100E3E009413141314102030831203139400622F92
:100E4E008316031387128711941314131410213071
:100E5E00831203139400622F8316031387128711D4
:100E6E009413141314102230831203139400622F60
:100E7E008316031387128715071694131413141071
:100E8E002430831203139400622F7208F000F101D4
:100E9E007108003A0319542F622F7008003A031993
:100EAE001B2F013A0319272F033A0319332F013A47
:100EBE0003193F2F622F0800F200C72F831203136E
:100ECE009F121F129F111F11FB2F831203139F12CC
:100EDE001F129F111F15FB2F831203139F121F1238
:100EEE009F151F11FB2F831203139F121F129F15A5
:100EFE001F15FB2F831203139F121F169F111F1115
:100F0E00FB2F831203139F121F169F111F15FB2F0A
:100F1E00831203139F121F169F151F11FB2F83128F
:100F2E0003139F121F169F151F15FB2F83120313FA
:100F3E009F161F129F111F11FB2F831203139F1653
:100F4E001F129F111F15FB2F831203139F161F12C3
:100F5E009F151F11FB2F831203139F161F129F1530
:100F6E001F15FB2F831203139F161F169F111F11A0
:100F7E00FB2F831203139F161F169F111F15FB2F96
:100F8E007208F000F1017108003A0319CF2FFB2F00
:100F9E007008003A0319652F013A03196C2F033AB2
:100FAE000319732F013A03197A2F073A0319812F68
:100FBE00013A0319882F033A03198F2F013A0319A7
:100FCE00962F0F3A03199D2F013A0319A42F033AB6
:100FDE000319AB2F013A0319B22F073A0319B92F90
:100FEE00013A0319C02FFB2F080083010A128A1140
:020FFE00ED2ED6
:04400E00D4E0FFFFFC
:00000001FF
