:020000040000FA
:060000000A128A110C280F
:10000800FE00030EF6000A08F7000A128A11F82902
:100018000A128A110F28F001F101F201F301F4012B
:10002800F50183120313A001A101A201A301A401F8
:10003800A501A601A701A801A901AA01AB01AC016C
:10004800AD0183010A128A113729FA008D2883121B
:1000580003139F121F129F111F11C128831203132C
:100068009F121F129F111F15C128831203139F127D
:100078001F129F151F11C128831203139F121F12ED
:100088009F151F15C128831203139F121F169F1156
:100098001F11C128831203139F121F169F111F15CA
:1000A800C128831203139F121F169F151F11C12801
:1000B800831203139F121F169F151F15C128831241
:1000C80003139F161F129F111F11C12883120313B8
:1000D8009F161F129F111F15C128831203139F1605
:1000E8001F129F151F11C128831203139F161F1279
:1000F8009F151F15C128831203139F161F169F11E2
:100108001F11C128831203139F161F169F111F1555
:10011800C1287A08F800F9017908003A03199528E6
:10012800C1287808003A03192B28013A0319322804
:10013800033A03193928013A03194028073A0319E1
:100148004728013A03194E28033A03195528013A5A
:1001580003195C280F3A03196328013A03196A281E
:10016800033A03197128013A03197828073A031941
:100178007F28013A03198628C1280800FA001429A3
:10018800831603130F178F160F168F110F158F1065
:100198000F143629831603130F178F160F128F119A
:1001A8000F158F100F143629831603130F178F128C
:1001B8000F168F110F158F100F143629831603137E
:1001C8000F178F120F128F110F158F100F1436295A
:1001D800831603130F138F160F168F110F158F1019
:1001E8000F143629831603130F138F160F128F114E
:1001F8000F158F100F143629831603130F138F1240
:100208000F168F110F158F100F143629831603132D
:100218000F138F120F128F110F118F140F1436290D
:100228007A08F800F9017908003A03191C293629D7
:100238007808003A0319C428013A0319CE28033A6A
:100248000319D828013A0319E228073A0319EC28B8
:10025800013A0319F628033A03190029013A031948
:100268000A29362908000A128A11E3210A128A117A
:1002780001300A128A11C2200A128A110A128A113E
:10028800D6210A128A1106300A128A1129200A1266
:100298008A1101300A128A1199210A128A11F80169
:1002A800F901403083120313AE002E08FA002430FF
:1002B8000A128A11BE210A128A11831203139F1887
:1002C8006629672968299F1483160313141C6D294E
:1002D8006E297A2900300A128A11EF210A128A112E
:1002E80074080A128A1107220A128A118312031348
:1002F8000C1F7F29802961299F1A83298429612954
:100308001F1E8729882961299F1D8B298C2961290E
:100318001F198F29902961291E08AE002E08F400A4
:100328000C1361290A128A110C28FA00AA298312CF
:1003380003139F131F13BD29831203139F131F1742
:10034800BD29831203139F171F13BD297A08F800CC
:10035800F9017908003A0319B229BD297808003A49
:1003680003199B29013A0319A029023A0319A5295F
:10037800BD290800FB008316031387127B1DC529BE
:10038800C629CB297A08940087150716D02978083A
:100398007A049400871107167B08790483120313E3
:1003A80094000800831203131F14831603139F136A
:1003B8009F121F120C17831203130C1308008316C5
:1003C800031389140915831603170817881783124E
:1003D8000313890108000A128A1100220A128A11DD
:1003E80083120313130808008B1377088A00760E0C
:1003F8008300FE0E7E0E090083160313141C052AC3
:10040800062A002A0800F8007808831203139300CC
:020418000800DA
:04400E00D4E0FFFFFC
:00000001FF
