:020000040000FA
:060000000A128A11EE2F26
:100E340083160313141C1F2F202F1A2F08000A12C5
:100E44008A111A270A128A1183120313130808003D
:100E5400831603138601091489148316031788164D
:100E640008178312031386010800FB00831603137B
:100E740087127B1D3E2F3F2F442F7A08940087153D
:100E84000716492F78087A049400871107167B08FF
:100E9400790483120313940008000A128A112A2782
:100EA4000A128A1101300A128A1179270A128A1148
:100EB400F801F9014030FC007C08FA0020300A12E5
:100EC4008A1137270A128A1183160313141C6B2FF5
:100ED4006C2F662F00300A128A1121270A128A11F8
:100EE400831203138601662F0A128A110028FA005E
:100EF400CB2F831603130F178F160F168F110F1591
:100F04008F100F14ED2F831603130F178F160F1264
:100F14008F110F158F100F14ED2F831603130F1756
:100F24008F120F168F110F158F100F14ED2F8316BC
:100F340003130F178F120F128F110F158F100F1429
:100F4400ED2F831603130F138F160F168F110F1522
:100F54008F100F14ED2F831603130F138F160F1218
:100F64008F110F158F100F14ED2F831603130F130A
:100F74008F120F168F110F158F100F14ED2F83166C
:100F840003130F138F120F128F110F118F140F14DD
:100F9400ED2F7A08F800F9017908003A0319D32FE4
:100FA400ED2F7808003A03197B2F013A0319852F96
:100FB400033A03198F2F013A0319992F073A03199A
:100FC400A32F013A0319AD2F033A0319B72F013A9E
:100FD4000319C12FED2F0800F001F101F201F30113
:100FE400F401F501F601F70183120313A001A10135
:0C0FF400A201A30183010A128A114F2FF1
:04400E00D4E0FFFFFC
:00000001FF
